:1000000005308A002B2D0000A12161376821E137DE
:1000100021102000A110A110A110A110A110A11069
:100020002100D732EC31EF36E51020100001AD167B
:10003000AD163E1053366F3A311020102000D732E3
:10004000EC31EF36E51020100001AD16AD163E1074
:1000500053366F3A321020100000D732EC31EF36B1
:10006000E51020100001AD16AD163E1053366F3A64
:10007000331020100000D732EC31EF36E51020109D
:100080000001AD16AD163E1053366F3A34102010F5
:100090002000D3377239F91020102000CE37A03954
:1000A000EC37F4102010201020003330840083132C
:1000B0000008031968280630F800F701F70B5E28DE
:1000C000F80B5D287B30F700F70B6428800B5B286A
:1000D0000800831609108312091083168801831201
:1000E0002F08880083160911831209151430B300F4
:1000F000552083160911831209111430B3005520BD
:10010000080083160911831209118316091083123E
:10011000091083168910831289103830AF006920C6
:100120000130B30055200F30AF0069200130AF001F
:1001300069200230B30055200630AF0069208A11D3
:100140000A12512D8E30F7003008F8002F08F90000
:10015000FA01F808031DB6287908F800F9010830FB
:10016000F702F808031DB628F701BE280310F81B94
:10017000BD28F90DF80DF703B628F81308002F086D
:1001800003198429BB00330803198429BB02031C0B
:10019000CE287F30BB0703188429D4288130BB02C6
:1001A000031C8429031984293B08F700F801F9018D
:1001B000FA01BA013008B900B9173108B80032089D
:1001C000B7001930BB003608B7020318F728013012
:1001D000B8020318F728B9020318F728BA0203185F
:1001E000F728BA0AB90AB80A3608B707292935081C
:1001F000B802031812290130B90203181229BA02F1
:1002000003181229BA0AB90A3508B8073608B70719
:10021000031C2929B80A031D2929B90A031D292904
:10022000BA0A292934088038B9020318282901306C
:10023000BA0203182829BA0A34088038B9073508E1
:10024000B807031C0629B90A031D0629BA0A06299C
:100250007A14BB0B2C2937290310B70DB80DB90D33
:10026000BA0D0310FA0DF90DF80DBC0DE3283C1C76
:100270003F290310F80CF90CFA0CBC0C4229F703C7
:1002800003198429BC1B6B290310B70DB80DB90DD8
:10029000BA0D3608B702031857290130B8020318FF
:1002A0005729B90203185729BA02031C7A293508BD
:1002B000B802031862290130B90203186229BA0290
:1002C000031C7A2934088038B90203186B290130DD
:1002D000BA02031C7A29FA0A031D7A29F90A031DB6
:1002E0007A29F80A031D7A29F70A03198429F80CD8
:1002F000F90CFA0C3008BB003408BB06BB1F82297E
:10030000F8178829F8138829F701F801F901FA018B
:1003100008008316091083120914831688018312BA
:100320003208880083160911831209151430B300AE
:10033000552083160911831209111430B30055207A
:1003400008000B08AF008B13831603178C170C14CF
:100350000000000083120313AF1B8B1703170C0858
:100360007F390319F5290313AF0003170D08031391
:10037000B00003170F080313B1002F08B200892142
:10038000300803178D000313310803178F00031380
:100390000B08B2008B13831603178C170C14000084
:1003A000000083120313B21B8B1703170C0D0E0DE5
:1003B0007F390319F5290313AF0003170D08031341
:1003C000B00003170F080313B1002F08B2008921F2
:1003D000300803178D000313310803178F008D0AAF
:1003E00003198F0A0313A1290317031308001F130E
:1003F0009F1783169F1783121F148316031709086C
:10040000C039890003131F129F1210300317880090
:10041000003083120313A200831687010130831278
:1004200087001030F8001F08C33978049F000A3095
:10043000B30055209F149F181B2A1E08F90083162D
:100440001E08F80079088312A1007808A0000A307D
:10045000B30055202108B0002008AF00A2207A0880
:10046000B2007908B1007808B0007708AF00AA3070
:10047000B600F130B5000230B4008030B300BF20C8
:100480007A08B2007908B1007808B0007708AF00A8
:100490008E30F7002F08F7023008F9003108F80015
:1004A000F917F70803195F2A0310F908031D5B2ADF
:1004B000F80803195F2AF90CF80CF70B542AB01F3F
:1004C000662AF809F909F80A0319F90A7908A10056
:1004D0007808A000A108031D712A2008313C0318E8
:1004E000A32A0030A20083168701013083128700FF
:1004F000C830B30055200030A20083168701831254
:10050000870183168601831286018030AF0069203F
:100510001030F700F70B8A2A0000043003178D0013
:1005200000308F000313A121C030AF0069201030CC
:10053000F700F70B992A00000A3003178D000030EE
:100540008F000313A12108008030AF006920103014
:10055000F700F70BA92A0000113003178D000030B7
:100560008F000313A121C030AF0069201030F700C5
:10057000F70BB82A0000173003178D0000308F00EA
:100580000313A121831686010F3083128600831680
:1005900086108312861083160611831206118316A5
:1005A00086118312861183160612831206160230F4
:1005B000AF009630B3005520AF0BD92A0800A42213
:1005C0008A110A12582D3008B7003408B706B71F31
:1005D000EE2A03110310B01B0314212B3008B700BF
:1005E0003308B8002F08B8020319FC2AB71F212BC3
:1005F0000308013A8300212B3408B8003008B80200
:100600000319082BB71F212B0308013A8300212B64
:100610003508B8003108B8020319142BB71F212B75
:100620000308013A8300212B3608B8003208B802CB
:100630000319202BB71F212B0308013A8300212B1C
:10064000031008000030831687008312A20083166F
:1006500088000910891009118911831222112208BA
:1006600083168700831207110C30970083169B01B5
:100670009C0101309D008312A2102208831687007E
:10068000831287100C309D000030F800063892006D
:10069000F93083169200831295019B01A213220860
:1006A00083168700831287176430B3005520221207
:1006B000220883168700831207162130F700F70BF4
:1006C0005F2B2212220883168700831207128E01E5
:1006D0008F018E010000A215220883168700831265
:1006E000871D6B2B25309000A215220883168700EA
:1006F00083128719742B0F08FA000E08F7000F08F1
:100700007A02031D7B2B7708AD007A08AE009001BA
:100710002E08B0002D08AF00A2207A08B200790898
:10072000B1007808B0007708AF00CD30B600CC300B
:10073000B5004C30B4007E30B3002F0803190D2CE7
:10074000B700330803190D2CB7070318AE2B7F3001
:10075000B702031C0D2C03190D2CB22B8130B707E7
:1007600003180D2C3708F700F801F901FA013008D9
:10077000BB00BB173108BA003208B9001830B70007
:10078000B801391CDB2B3608FA07031CCD2BF90AFC
:10079000031DCD2BF80A0319B8173508F907031CF8
:1007A000D42BF80A0319B8173408B100B11731086F
:1007B000F8070318B817B80DF80CF90CFA0CBB0CB5
:1007C000BA0CB90C0310B70BC02B0130F707031894
:1007D0000D2CF81BF22BBB0DFA0DF90DF80DF703DC
:1007E00003190D2CBB1F032CFA0A031D032CF90A55
:1007F000031D032CF80A031D032CF80CF90CFA0C4A
:10080000F70A03190D2C3008B8003408B806B81FD1
:100810000B2CF817112CF813112CF701F801F90122
:10082000FA017A08AC007908AB007808AA007708CA
:10083000A9002C08B2002B08B1002A08B000290832
:10084000AF00CD30B600CC30B5006830B400843095
:10085000B300BF207A08A8007908A7007808A6008E
:100860007708A5002808B2002708B1002608B000C4
:100870002508AF00B601B501B4018130B300E32211
:10088000031C522C2210220883168700831207149F
:10089000FA309B001D08CF399D0095011430B3003C
:1008A0005520712CB201B101B0018130AF00280890
:1008B000B6002708B5002608B4002508B300E322D7
:1008C000031C712C22102208831687008312071044
:1008D000FA3095001708CF3997009B011430B30008
:1008E0005520732C572B08008030AF006920103042
:1008F000F700F70B792C00001F3003178D00003034
:100900008F000313A121C030AF0069201030F70021
:10091000F70B882C0000253003178D0000308F0066
:100920000313A12183160612831206128316860171
:100930000F30831286008316061183120611831668
:10094000861183128611831686128312861608007A
:100950008030AF0069201030F700F70BAD2C00009D
:100960002D3003178D0000308F000313A121C030FC
:10097000AF0069201030F700F70BBC2C00003330BB
:1009800003178D0000308F000313A12183168612F8
:1009900083128612831686010F3083128600831617
:1009A0008611831286118316061383120617080018
:1009B0008030AF0069201030F700F70BDD2C00000D
:1009C0003B3003178D0000308F000313A121C0308E
:1009D000AF0069201030F700F70BEC2C000041301D
:1009E00003178D0000308F000313A1218316061317
:1009F00083120613831686010F3083128600831636
:100A00008613831286178A110A12792D8030AF005F
:100A100069201030F700F70B0B2D00004930031749
:100A20008D0000308F000313A121C030AF0069207A
:100A30001030F700F70B1A2D00004E3003178D0011
:100A400000308F000313A1218316860183128601D3
:100A50008A110A129C2D03081F398300A101A001ED
:100A6000FF30A200A401A301831603170908C039AF
:100A7000890003131F129F1200300317880083128E
:100A8000870188018901831300300313A2008316B4
:100A90008701013083128700831686018312860145
:100AA0008128831605148312051C5A2DF721DF2A8D
:100AB0002223512D8316051483120518E12D742469
:100AC000F72122238316851483128518E02DA8248C
:100AD000F7212223831605148312051C712DA422ED
:100AE0006A2DF72122238316051583120519DF2DA0
:100AF000D82CF7212223831685148312851C8D2D73
:100B00007424F7212223831605148312051C8A2DD1
:100B1000A422832DF72122237B2D83160514831213
:100B2000051C942DA4228D2DF721222383168515D3
:100B300083128519DE2D062DF72122238316051435
:100B40008312051CA72DA422F72122239E2D831694
:100B500085148312851CB92D7424F7212223831652
:100B600005148312051CB62DA422AF2DF7212223D4
:100B7000A72D831605158312051DDD2DA824F72149
:100B80002223831685148312851CD32D7424F72108
:100B90002223831605148312051CD02DA422C92DEF
:100BA000F7212223C12D831605148312051CDA2D8B
:100BB000A422D32DF7212223B92D962D732D622D3A
:080BC0005A2D0317442D6300B8
:04400E00C22CFF3F82
:00000001FF
;PIC16F887
;CRC=B41C  CREATED="13-Jun-22 18:15"
