:1000000002308A00182A00002B3084008313000875
:10001000031917280630F800F701F70B0D28F80B25
:100020000C287B30F700F70B1328800B0A280800F8
:100030002A122A0883168700831207162130F70038
:10004000F70B20282A122A0883168700831207122A
:100050008E018F018E010000AA152A0883168700E1
:100060008312871D2C2825309000AA152A08831694
:1000700087008312871935280F08FA000E08F70049
:100080000F087A02031D3C287708A8007A08A90007
:1000900090012908AC002808AB008E30F7002C082E
:1000A000F8002B08F900FA01F808031D6128790807
:1000B000F800F9010830F702F808031D6128F7017C
:1000C00069280310F81B6828F90DF80DF70361285B
:1000D000F8137A08AE007908AD007808AC0077080C
:1000E000AB00CD30B200CC30B1004C30B0007E302F
:1000F000AF002B080319E928B3002F080319E928DA
:10010000B30703188A287F30B302031CE9280319B8
:10011000E9288E288130B3070318E9283308F7004F
:10012000F801F901FA012C08B700B7172D08B6003D
:100130002E08B5001830B300B401351CB7283208BA
:10014000FA07031CA928F90A031DA928F80A0319AC
:10015000B4173108F907031CB028F80A0319B417BB
:100160003008AD00AD172D08F8070318B417B40D0B
:10017000F80CF90CFA0CB70CB60CB50C0310B30B59
:100180009C280130F7070318E928F81BCE28B70D83
:10019000FA0DF90DF80DF7030319E928B71FDF2849
:1001A000FA0A031DDF28F90A031DDF28F80A031DD8
:1001B000DF28F80CF90CFA0CF70A0319E9282C08C7
:1001C000B4003008B406B41FE728F817ED28F81378
:1001D000ED28F701F801F901FA017A08A70079087A
:1001E000A6007808A5007708A4002708AE00260816
:1001F000AD002508AC002408AB00CD30B200CC30F7
:10020000B1006830B0008430AF002B080319CA2950
:10021000B7002F080319CA29B702031C14297F301D
:10022000B7070318CA291A298130B702031CCA2943
:100230000319CA293708F700F801F901FA01B601D4
:100240002C08B500B5172D08B4002E08B3001930DE
:10025000B7003208B30203183D290130B402031875
:100260003D29B50203183D29B60203183D29B60AF7
:10027000B50AB40A3208B3076F293108B40203186B
:1002800058290130B50203185829B6020318582915
:10029000B60AB50A3108B4073208B307031C6F2940
:1002A000B40A031D6F29B50A031D6F29B60A6F2909
:1002B00030088038B50203186E290130B6020318E1
:1002C0006E29B60A30088038B5073108B407031C18
:1002D0004C29B50A031D4C29B60A4C297A14B70BD0
:1002E00072297D290310B30DB40DB50DB60D0310A1
:1002F000FA0DF90DF80DB80D2929381C85290310C0
:10030000F80CF90CFA0CB80C8829F7030319CA2960
:10031000B81BB1290310B30DB40DB50DB60D3208DD
:10032000B30203189D290130B40203189D29B502B8
:1003300003189D29B602031CC0293108B402031812
:10034000A8290130B5020318A829B602031CC02948
:1003500030088038B5020318B1290130B602031CF9
:10036000C029FA0A031DC029F90A031DC029F80A89
:10037000031DC029F70A0319CA29F80CF90CFA0C55
:100380002C08B7003008B706B71FC829F817CE29C0
:10039000F813CE29F701F801F901FA017A08A30050
:1003A0007908A2007808A1007708A0008A110A1233
:1003B000642A2C08B3003008B306B31FE4290311E4
:1003C0000310AC1B0314172A2C08B3002F08B40029
:1003D0002B08B4020319F229B31F172A0308013AA4
:1003E0008300172A3008B4002C08B4020319FE2930
:1003F000B31F172A0308013A8300172A3108B400F3
:100400002D08B40203190A2AB31F172A0308013A58
:100410008300172A3208B4002E08B4020319162AE2
:10042000B31F172A0308013A8300172A0310080094
:1004300003081F398300FF30AA0083160317090839
:10044000C039890003131F129F1200300317880060
:1004500083128701880189018313003083160313F7
:1004600087008312AA0083168800091089100911D9
:10047000891183122A112A08831687008312071113
:100480000C30970083169B019C0101309D00831264
:10049000AA102A0883168700831287100C309D004B
:1004A0000030F80006389200F9308316920083126B
:1004B00095019B01AA132A088316870083128717C8
:1004C0006430AB0004201828AE01AD01AC018130CE
:1004D000AB002308B2002208B1002108B0002008B8
:1004E000AF00D921031C952A2308AE002208AD00D5
:1004F0002108AC002008AB00B201B1016030B000AF
:100500008130AF00D921031C952A2A102A088316AE
:100510008700831207147D309B001D08CF399D0092
:1005200095011430AB000420B42A2308AE00220841
:10053000AD002108AC002008AB00B201B101B00150
:100540008130AF00D921031CB42A2A102A0883164F
:100550008700831207107D3095001708CF39970068
:0C0560009B011430AB000420632A6300F0
:04400E00E22FFF3F5F
:00000001FF
;PIC16F887
;CRC=5388  CREATED="13-Jun-22 17:57"
