:1000000002308A00392A00002F3084008313000850
:10001000031917280630F800F701F70B0D28F80B25
:100020000C287B30F700F70B1328800B0A280800F8
:100030008E30F7003008F8002F08F900FA01F808B0
:10004000031D2C287908F800F9010830F702F80898
:10005000031D2C28F70134280310F81B3328F90D51
:10006000F80DF7032C28F81308002E122E0883161B
:100070008700831207160C30AF0004202E122E08C2
:100080008316870083120712053090008E018F01BE
:100090008E01000090010F08FA000E08F7000F080B
:1000A0007A02031D4B287708AF007A08B0001820A9
:1000B0007A08A7007908A6007808A5007708A400A8
:1000C0002708B2002608B1002508B0002408AF00B8
:1000D000B601B5016830B4008430B3002F080319AD
:1000E0003329BB00330803193329BB02031C7D28C5
:1000F0007F30BB070318332983288130BB02031CE0
:100100003329031933293B08F700F801F901FA01F3
:10011000BA013008B900B9173108B8003208B70081
:100120001930BB003608B7020318A6280130B80200
:100130000318A628B9020318A628BA020318A6288D
:10014000BA0AB90AB80A3608B707D8283508B80273
:100150000318C1280130B9020318C128BA020318D4
:10016000C128BA0AB90A3508B8073608B707031C08
:10017000D828B80A031DD828B90A031DD828BA0AF6
:10018000D82834088038B9020318D7280130BA02B9
:100190000318D728BA0A34088038B9073508B807D1
:1001A000031CB528B90A031DB528BA0AB5287A1464
:1001B000BB0BDB28E6280310B70DB80DB90DBA0D3F
:1001C0000310FA0DF90DF80DBC0D92283C1CEE2819
:1001D0000310F80CF90CFA0CBC0CF128F703031906
:1001E0003329BC1B1A290310B70DB80DB90DBA0D70
:1001F0003608B702031806290130B8020318062989
:10020000B90203180629BA02031C29293508B802C5
:10021000031811290130B90203181129BA02031C6D
:10022000292934088038B90203181A290130BA0282
:10023000031C2929FA0A031D2929F90A031D292962
:10024000F80A031D2929F70A03193329F80CF90CB8
:10025000FA0C3008BB003408BB06BB1F3129F81765
:100260003729F8133729F701F801F901FA017A085B
:10027000B2007908B1007808B0007708AF008E307E
:10028000F7002F08F7023008F9003108F800F917D5
:10029000F708031956290310F908031D5229F80815
:1002A00003195629F90CF80CF70B4B29B01F5D29DF
:1002B000F809F909F80A0319F90A7908AD0078086C
:1002C000AC002D08B0002C08AF0018207A08B2004E
:1002D0007908B1007808B0007708AF00CD30B600DB
:1002E000CC30B5004C30B4007C30B3002F0803197B
:1002F000E629B70033080319E629B7070318872949
:100300007F30B702031CE6290319E6298B298130C7
:10031000B7070318E6293708F700F801F901FA01D1
:100320003008BB00BB173108BA003208B9001830DA
:10033000B700B801391CB4293608FA07031CA629EE
:10034000F90A031DA629F80A0319B8173508F90791
:10035000031CAD29F80A0319B8173408B100B11706
:100360003108F8070318B817B80DF80CF90CFA0C97
:10037000BB0CBA0CB90C0310B70B99290130F70765
:100380000318E629F81BCB29BB0DFA0DF90DF80D62
:10039000F7030319E629BB1FDC29FA0A031DDC2930
:1003A000F90A031DDC29F80A031DDC29F80CF90CF5
:1003B000FA0CF70A0319E6293008B8003408B80621
:1003C000B81FE429F817EA29F813EA29F701F80118
:1003D000F901FA017A08A3007908A2007808A100BF
:1003E0007708A0002D08B0002C08AF0018208A1153
:1003F0000A128D2A3008B7003408B706B71F052A3D
:1004000003110310B01B0314382A3008B700330857
:10041000B8002F08B8020319132AB71F382A030897
:10042000013A8300382A3408B8003008B8020319AA
:100430001F2AB71F382A0308013A8300382A3508D3
:10044000B8003108B80203192B2AB71F382A03084D
:10045000013A8300382A3608B8003208B802031976
:10046000372AB71F382A0308013A8300382A0310B5
:10047000080003081F398300FF30AE0083160317FE
:100480000908C039890003131F129F120030031797
:10049000880083128701880189018313073083163E
:1004A00003138600003087008312AE008316880095
:1004B000091089100911891183122E112E08831633
:1004C0008700831207110C30970083169B019C0153
:1004D00001309D008312AE102E0883168700831210
:1004E00087100C309D000030F80006389200F9307B
:1004F00083169200831295019B01AE132E0883167A
:100500008700831287172E102E0883168700831208
:1005100007146430AF00042035287A08A300790856
:10052000A2007808A1007708A000B201B101203034
:10053000B0008130AF002308B6002208B5002108C2
:10054000B4002008B300FA21031CC32A2308B20018
:100550002208B1002108B0002008AF00B601B501A3
:100560002030B4008230B300FA21031CC32A2E10BD
:100570002E0883168700831207149B01C83095004C
:10058000AF000420FD2A2308B2002208B100210890
:10059000B0002008AF00B601B5012030B4008130B2
:1005A000B300FA21031CE42A2E102E0883168700BC
:1005B0008312071095014B309B001D08CF399D0019
:1005C000C830AF000420FD2AB201B1012030B000D4
:1005D0008230AF002308B6002208B5002108B4001D
:1005E0002008B300FA21031CFD2A2E102E088316C2
:0E05F00087008312071495019B018C2A63007B
:04400E00E22FFF3F5F
:00000001FF
;PIC16F887
;CRC=6403  CREATED="13-Jun-22 16:54"
