:1000000001308A00D42900008316851383128517D6
:10001000A630F700F70B0A28000083168513831219
:1000200085138A110A12EC298E018F018E010000BE
:10003000831605178312051F182825309000831694
:1000400005178312051B1F2890012908AE002808F8
:10005000AD008E30F7002E08F8002D08F900FA01E7
:10006000F808031D3D287908F800F9010830F70267
:10007000F808031D3D28F70145280310F81B442804
:10008000F90DF80DF7033D28F8137A08B000790848
:10009000AF007808AE007708AD00CD30B400CC30AA
:1000A000B3004C30B2007E30B1002D080319C528D2
:1000B000B50031080319C528B507031866287F3035
:1000C000B502031CC5280319C5286A288130B50765
:1000D0000318C5283508F700F801F901FA012E08C0
:1000E000B900B9172F08B8003008B7001830B500AC
:1000F000B601371C93283408FA07031C8528F90A2F
:10010000031D8528F80A0319B6173308F907031CDD
:100110008C28F80A0319B6173208AF00AF172F085A
:10012000F8070318B617B60DF80CF90CFA0CB90C51
:10013000B80CB70C0310B50B78280130F70703187B
:10014000C528F81BAA28B90DFA0DF90DF80DF7030B
:100150000319C528B91FBB28FA0A031DBB28F90AD1
:10016000031DBB28F80A031DBB28F80CF90CFA0C78
:10017000F70A0319C5282E08B6003208B606B61FBE
:10018000C328F817C928F813C928F701F801F9019D
:10019000FA017A08A7007908A6007808A500770870
:1001A000A4002708B0002608AF002508AE002408E8
:1001B000AD00B401B3016830B2008430B1002D0845
:1001C0000319A429B90031080319A429B902031C91
:1001D000EE287F30B9070318A429F4288130B9022A
:1001E000031CA4290319A4293908F700F801F9010F
:1001F000FA01B8012E08B700B7172F08B60030086B
:10020000B5001930B9003408B502031817290130B8
:10021000B60203181729B70203181729B8020318E2
:100220001729B80AB70AB60A3408B50749293308A6
:10023000B602031832290130B70203183229B80276
:1002400003183229B80AB70A3308B6073408B507C5
:10025000031C4929B60A031D4929B70A031D492968
:10026000B80A492932088038B702031848290130F2
:10027000B80203184829B80A32088038B70733088B
:10028000B607031C2629B70A031D2629B80A262902
:100290007A14B90B4C2957290310B50DB60DB70DBB
:1002A000B80D0310FA0DF90DF80DBA0D03293A1C1B
:1002B0005F290310F80CF90CFA0CBA0C6229F70349
:1002C0000319A429BA1B8B290310B50DB60DB70D60
:1002D000B80D3408B502031877290130B6020318A7
:1002E0007729B70203187729B802031C9A29330823
:1002F000B602031882290130B70203188229B80216
:10030000031C9A2932088038B70203188B29013060
:10031000B802031C9A29FA0A031D9A29F90A031D37
:100320009A29F80A031D9A29F70A0319A429F80C37
:10033000F90CFA0C2E08B9003208B906B91FA22927
:10034000F817A829F813A829F701F801F901FA010B
:100350007A08A3007908A2007808A1007708A00015
:100360008A110A12ED298E30F7002D08F7022E08A7
:10037000F9002F08F800F917F7080319CA29031024
:10038000F908031DC629F8080319CA29F90CF80C45
:10039000F70BBF29AE1FD129F809F909F80A03198B
:1003A000F90A8A110A12F62903081F398300FF305F
:1003B000AC00831603170908C039890003131F1204
:1003C0009F1200300317880083128701880189017A
:1003D000831303139001042814282308B000220873
:1003E000AF002108AE002008AD00B3297908AB00AA
:1003F0007808AA00AB08031D082A2A08043C031C3D
:10040000082A2C102C088316870083120714152A3B
:10041000AB08031D0F2A2A08053C0318152A2C10C7
:0E0420002C088316870083120710EB29630057
:04400E00E22FFF3F5F
:00000001FF
;PIC16F887
;CRC=D638  CREATED="13-Jun-22 16:29"
